:08000000803102288731F72F3F
:100C50007901901108004F01901208008631282672
:100C6000863108007901120E890C013908007901DA
:100C70009217191412170800790119101213921300
:100C8000080071084001A1007008A0000800603051
:100C900045018D008F0191010530930092010800FC
:100CA00041011B1111114F018F01900192018D0122
:100CB0000800730879019700720896007108940083
:100CC00070089300080041010C100B140030F00074
:100CD0000030F100863141268631080086318E26AB
:100CE00086316630F9008830FA0086317B268631FD
:100CF000782E80310228F60187318F2786317A08D5
:100D0000F1007908F0001830F2000030F30087316C
:100D10002927863186312B268631080086314726E1
:100D200086318631A4268631873155278631863132
:100D3000FF26863186312E26863186315026863131
:100D400086316326863108004A018C130030F40096
:100D50000830F5008631DF26863106304A019500DD
:100D60009901980197019601410113101D109310EC
:100D70009D1013111D1193119D114A018C1708002C
:100D8000F401F501701CC52EC62ECA2E7208F40798
:100D90007308F53D0130F235F30D890BCB2E013090
:100DA000F136F00C890BD02E70087104031DD92E7A
:100DB000DA2EC22E7508F1007408F00008007408DD
:100DC000663EF6000030753DF7007508F1007408C6
:100DD000F0007708F3007608F20086315926863154
:100DE000863137268631863132268631003A031D18
:100DF000FA2EFB2EF32E86313C268631080079012F
:100E0000A5010730A6000730A7002508F3390838E8
:100E1000A500A401A301A201D530A100F330A505CE
:100E2000A401A301A201A101A0019F019E019D01B6
:100E3000FF309700FF309600940193019A01410121
:100E40008D1097100D1117117901A5011030920026
:100E500008007108F7007008F6007308F5007208C2
:100E6000F4004E2F760884007708850000084F01B3
:100E70008C004101111D3D2F3E2F392F1111760895
:100E80008600770887004F010C0881000130F607C3
:100E90000030F73D0130F4020030F53B7408750472
:100EA000031D532F542F322F080040019801990140
:100EB0009A013730920030309300FF309400373081
:100EC0007D018C0020309600FF30A0008D0197013D
:100ED000A1018E019801A20137308F00F0309900F6
:100EE000FF30A3003F30900020309A00FF30A40074
:100EF0000C307C01C80024307B019B000E307C014B
:100F0000C7001B307B019A007D0191019201930182
:100F10009B019C019D01A501A601A70108004F01AD
:100F2000901A932F942FF62F7608F700F801770880
:100F3000F0007808F1000530F2000030F30086314F
:100F4000C0268731CA30700784000830713D803870
:100F5000850000084F018F007608F700F801770838
:100F6000F0007808F1000530F2000030F30086311F
:100F7000C0268731CB30700784000830713D80383F
:100F8000850000084F0190007608F700F801770807
:100F9000F0007808F1000530F2000030F3008631EF
:100FA000C0268731CC30700784000830713D80380E
:100FB000850000084F0192007608F700F8017708D5
:100FC000F0007808F1000530F2000030F3008631BF
:100FD000C0268731CD30700784000830713D8038DD
:100FE000850000084F018D009016F62F0800FB01C8
:100FF000FC01FD014001A001A101400186316E2EDE
:1010000008112208602A00000000800138308001A9
:1010100000000000000000000000000000000000D0
:101020000A018208602A00000000000000000000A1
:101030000038C2152A0E40010A28000000000000F6
:1010400000000000000000000F3C000C0000000049
:101050000000000000000000000000000000000090
:10106000D42840010014000000000000000000002F
:10107000000000000A0040110A28000000000000E3
:101080000000000000000000000009001E28421BB4
:101090000000000000000000000000000000000050
:1010A0000A150208602800000000990101231F3C76
:1010B000E1031F3CF0011F3EE0031F3EE1031F3C24
:1010C0004000000000000000003802000F3400342F
:1010D000003400340F340034003400340F340F3443
:1010E0000F3400340F3400340F3400340F340F3415
:1010F0000F340F340F3405340F340A340034003405
:10110000003400340034003400340034003400343F
:10111000003400340034003400340034003400342F
:10112000003400340034003400340034003400341F
:10113000003400340034003400340034003400340F
:1011400000340034003400340034003400340034FF
:101150000034003400340034003400345034063499
:10116000003400348F3407342B34063429340734E8
:1011700000340034003400340034003400340034CF
:1011800000340034003400340034003400340034BF
:101190000034003400340A34103409340034643428
:0811A000003410340134003466
:020000040001F9
:0A000E008C3FFF3F9F3FFF3FFF3F85
:00000001FF
